{
  "_format": "hh-sol-artifact-1",
  "contractName": "Greeter",
  "sourceName": "contracts/greeter.sol",
  "abi": [
    {
      "inputs": [
        {
          "internalType": "string",
          "name": "_greeting",
          "type": "string"
        }
      ],
      "stateMutability": "nonpayable",
      "type": "constructor"
    },
    {
      "inputs": [
        {
          "internalType": "string",
          "name": "_greeting",
          "type": "string"
        }
      ],
      "name": "getGreetPublic",
      "outputs": [
        {
          "internalType": "string",
          "name": "",
          "type": "string"
        }
      ],
      "stateMutability": "view",
      "type": "function"
    },
    {
      "inputs": [],
      "name": "greet",
      "outputs": [
        {
          "internalType": "string",
          "name": "",
          "type": "string"
        }
      ],
      "stateMutability": "view",
      "type": "function"
    },
    {
      "inputs": [
        {
          "internalType": "string",
          "name": "_greeting",
          "type": "string"
        }
      ],
      "name": "setGreetPublic",
      "outputs": [],
      "stateMutability": "nonpayable",
      "type": "function"
    }
  ],
  "bytecode": "0x608060405234801561001057600080fd5b506040516107ce3803806107ce8339818101604052810190610032919061015a565b806000908051906020019061004892919061004f565b50506102f6565b82805461005b90610224565b90600052602060002090601f01602090048101928261007d57600085556100c4565b82601f1061009657805160ff19168380011785556100c4565b828001600101855582156100c4579182015b828111156100c35782518255916020019190600101906100a8565b5b5090506100d191906100d5565b5090565b5b808211156100ee5760008160009055506001016100d6565b5090565b6000610105610100846101c0565b61019b565b90508281526020810184848401111561011d57600080fd5b6101288482856101f1565b509392505050565b600082601f83011261014157600080fd5b81516101518482602086016100f2565b91505092915050565b60006020828403121561016c57600080fd5b600082015167ffffffffffffffff81111561018657600080fd5b61019284828501610130565b91505092915050565b60006101a56101b6565b90506101b18282610256565b919050565b6000604051905090565b600067ffffffffffffffff8211156101db576101da6102b6565b5b6101e4826102e5565b9050602081019050919050565b60005b8381101561020f5780820151818401526020810190506101f4565b8381111561021e576000848401525b50505050565b6000600282049050600182168061023c57607f821691505b602082108114156102505761024f610287565b5b50919050565b61025f826102e5565b810181811067ffffffffffffffff8211171561027e5761027d6102b6565b5b80604052505050565b7f4e487b7100000000000000000000000000000000000000000000000000000000600052602260045260246000fd5b7f4e487b7100000000000000000000000000000000000000000000000000000000600052604160045260246000fd5b6000601f19601f8301169050919050565b6104c9806103056000396000f3fe608060405234801561001057600080fd5b50600436106100415760003560e01c80632aefd188146100465780637928b53314610076578063cfae321714610092575b600080fd5b610060600480360381019061005b9190610271565b6100b0565b60405161006d91906102eb565b60405180910390f35b610090600480360381019061008b9190610271565b6100ba565b005b61009a6100d4565b6040516100a791906102eb565b60405180910390f35b6060819050919050565b80600090805190602001906100d0929190610166565b5050565b6060600080546100e3906103c1565b80601f016020809104026020016040519081016040528092919081815260200182805461010f906103c1565b801561015c5780601f106101315761010080835404028352916020019161015c565b820191906000526020600020905b81548152906001019060200180831161013f57829003601f168201915b5050505050905090565b828054610172906103c1565b90600052602060002090601f01602090048101928261019457600085556101db565b82601f106101ad57805160ff19168380011785556101db565b828001600101855582156101db579182015b828111156101da5782518255916020019190600101906101bf565b5b5090506101e891906101ec565b5090565b5b808211156102055760008160009055506001016101ed565b5090565b600061021c61021784610332565b61030d565b90508281526020810184848401111561023457600080fd5b61023f84828561037f565b509392505050565b600082601f83011261025857600080fd5b8135610268848260208601610209565b91505092915050565b60006020828403121561028357600080fd5b600082013567ffffffffffffffff81111561029d57600080fd5b6102a984828501610247565b91505092915050565b60006102bd82610363565b6102c7818561036e565b93506102d781856020860161038e565b6102e081610482565b840191505092915050565b6000602082019050818103600083015261030581846102b2565b905092915050565b6000610317610328565b905061032382826103f3565b919050565b6000604051905090565b600067ffffffffffffffff82111561034d5761034c610453565b5b61035682610482565b9050602081019050919050565b600081519050919050565b600082825260208201905092915050565b82818337600083830152505050565b60005b838110156103ac578082015181840152602081019050610391565b838111156103bb576000848401525b50505050565b600060028204905060018216806103d957607f821691505b602082108114156103ed576103ec610424565b5b50919050565b6103fc82610482565b810181811067ffffffffffffffff8211171561041b5761041a610453565b5b80604052505050565b7f4e487b7100000000000000000000000000000000000000000000000000000000600052602260045260246000fd5b7f4e487b7100000000000000000000000000000000000000000000000000000000600052604160045260246000fd5b6000601f19601f830116905091905056fea26469706673582212208e2809708573b25e2f40fb80e7ce659480f8d18d015ddef76f5ea7886ccc9e9564736f6c63430008040033",
  "linkReferences": {},
  "deployedLinkReferences": {}
}